:100000000C9434000C943E000C943E000C943E0082
:100010000C943E000C943E000C943E000C943E0068
:100020000C943E000C943E000C943E000C943E0058
:100030000C943E000C943E000C943E000C943E0048
:100040000C943E000C943E000C943E000C943E0038
:100050000C943E000C943E000C943E000C943E0028
:100060000C943E000C943E0011241FBECFEFD8E04C
:10007000DEBFCDBF0E9440000C9497000C9400009E
:100080008FEF8AB91BB82FEF83ED90E321508040AA
:100090009040E1F700C00000589A2FEF83ED90E305
:1000A000215080409040E1F700C00000599A2FEFA6
:1000B00083ED90E3215080409040E1F700C00000C4
:1000C0005A9A2FEF83ED90E3215080409040E1F762
:1000D00000C000008BB188638BB92FEF83ED90E3F4
:1000E000215080409040E1F700C0000058982FEF69
:1000F00083ED90E3215080409040E1F700C0000084
:1001000058982FEF83ED90E3215080409040E1F725
:1001100000C000008BB1877C8BB92FEF83ED90E39B
:10012000215080409040E1F700C00000ABCFF89430
:02013000FFCFFF
:00000001FF
